T2015 12123456712345         TAX GETTERS                                                                     TAX GETTERS                                                                     1709 S STATE ST                         EDMOND                                  OK73013                   00000000JACK TAXUM                              4053400697     jack76@aol.com                                                                                                                               00000001          VADVANCED MICRO SOLUTIONS                1709 S. STATE STREET                    EDMOND                                  OK73013    KYLE MCCORKLE                           4053400697                                                 
A2015      487643215     8 123457                   ADVANCED MICRO SOLUTIONS                AMS                                     01709 S STATE ST       STE 14            EDMOND                                  CA7301333331353472438                                                                                                                                                                                                                                                                         00000002                                                                                                                                                                                                                                                 
B2015     145982374887456098945                       000000000100000000000200000000000300000000000400000000000500000000000000000000000600000000000000000000000000000000000000000000000000000000000000000000000000000000000000000000000000000000000000 GEORGE STUDENT                          GEORGE P STUDENT                                                                1234 NE UNIVERSITY ST                                                           CITY                                    SC12345     00000003                                         11                                                                                                                                                                                                      
B2015     2225456313225456313/2                       000000001000000000002000000000003000000000004000000000005000000000000000000000006000000000000000000000000000000000000000000000000000000000000000000000000000000000000000000000000000000000000000 RALPH G LEARNER                         RALPHY                                                                          6542 N WINCHECTER AVE                                                           SOMECITY                                MO687426541 00000004                                       11                                                                                                                                                                                                        
B2015     255448312346542334765416541                 000000010000000000020000000000030000000000040000000000050000000000000000000000060000000000000000000000000000000000000000000000000000000000000000000000000000000000000000000000000000000000000000 HENRY P KADIDALLHOPPER                  H HOPPER                                                                        6545 E ELGIN AVE                                                                ANYCITY                                 MO654144984 00000005                                       1111                                                                                                                                                                                                      
B2015     2461151631461151631/4                       001000000000002000000000003000000000004000000000005000000000000000000000006000000000000000000000000000000000000000000000000000000000000000000000000000000000000000000000000000000000000000000000 KENNETH A PARSONS                       KAP                                                                             3451 W ANYSTREET PL                                                             WHOKNOWS                                ID91521     00000006                                       11                                                                                                                                                                                                        
C00000004      000000001000011100000000002000022200000000003000033300000000004000044400000000005000055500000000000000000000000000006000066600000000000000000000000000000000000000000000000000000000000000000000000000000000000000000000000000000000000000000000000000000000000000000000000000000000000000000000                                                                                                                                                                                                    00000007                                                                                                                                                                                                                                                 
F00000001000000000000000000000                   00000004                                                                                                                                                                                                                                                                                                                                                                                                                                                          00000008                                                                                                                                                                                                                                                 
