T2015 12123456712345         TAX GETTERS                                                                     TAX GETTERS                                                                     1709 S STATE ST                         EDMOND                                  OK73013                   00000000JACK TAXUM                              4053400697     jack76@aol.com                                                                                                                               00000001          VADVANCED MICRO SOLUTIONS                1709 S. STATE STREET                    EDMOND                                  OK73013    KYLE MCCORKLE                           4053400697                                                 
A2015      487643215     3 12345                    ADVANCED MICRO SOLUTIONS                AMS                                     01709 S STATE ST       STE 14            EDMOND                                  CA7301333331353472438                                                                                                                                                                                                                                                                         00000002                                                                                                                                                                                                                                                 
B2015     2111221234126461984656545415                000000000100000000000200000000000300000000041523000000000000000000000000000000000000000000000000000000000000000000000000000000000000000000000000000000000000000000000000000000000000000000000000 RECIP LINE 1                            RECIP LINE 2                                                                    STREET LINE 3                                                                   SAN DIEGO                               CA123451111 00000003                                                                                                                                                                                                                                                 
B2015     2211221234211221234/2                       000000001000000000002000000000003000000000052312000000000000000000000000000000000000000000000000000000000000000000000000000000000000000000000000000000000000000000000000000000000000000000000000 RECIP LINE 10                           RECIP LINE 20                                                                   RECIP LINE 30                                                                   SAN JOSE                                CA123452222 00000004                                                                                                                                                                                                                                                 
B2015     23112212343                                 000000010000000000020000000000030000000000023467000000000000000000000000000000000000000000000000000000000000000000000000000000000000000000000000000000000000000000000000000000000000000000000000 RECIP LINE 100                          RECIP LINE 200                                                                  RECIP LINE 300                                                                  SAN JOSE                                CA123453333 00000005                                                                                                                                                                                                                                                 
B2015     2411221234411221234/4                       001000000000002000000000003000000000000000062419000000000000000000000000000000000000000000000000000000000000000000000000000000000000000000000000000000000000000000000000000000000000000000000000 RECIP LINE 1000                         RECIP LINE 2000                                                                 RECIP LINE 3000                                                                 SAN JOSE                                CA123454444 00000006                                                                                                                                                                                                                                                 
C00000004      000000001000011100000000002000022200000000003000033300000000000000179721000000000000000000000000000000000000000000000000000000000000000000000000000000000000000000000000000000000000000000000000000000000000000000000000000000000000000000000000000000000000000000000000000000000000000000000000                                                                                                                                                                                                    00000007                                                                                                                                                                                                                                                 
F00000001000000000000000000000                   00000004                                                                                                                                                                                                                                                                                                                                                                                                                                                          00000008                                                                                                                                                                                                                                                 
