T2015 12123456712345         TAX GETTERS                                                                     TAX GETTERS                                                                     1709 S STATE ST                         EDMOND                                  OK73013                   00000000JACK TAXUM                              4053400697     jack76@aol.com                                                                                                                               00000001          VADVANCED MICRO SOLUTIONS                1709 S. STATE STREET                    EDMOND                                  OK73013    KYLE MCCORKLE                           4053400697                                                 
A2015      487643215     2 1                        ADVANCED MICRO SOLUTIONS                AMS                                     01709 S STATE ST       STE 14            EDMOND                                  CA7301333331353472438                                                                                                                                                                                                                                                                         00000002                                                                                                                                                                                                                                                 
B2015     112421365782376506857679834                 000000000100000000000000000000000000000000000000000000000000000000000000000000000000000000000000000000000000000000000000000000000000000000000000000000000000000000000000000000000000000000000000 BORROWER MONEYWISE                      BORROWER SPENDER                                                                1234 S MAPLE                                                                    CITY                                    SC65987     00000003                                                                                                                                                                                                                                                 
B2015     2152456512152456512/2                       000000001000000000000000000000000000000000000000000000000000000000000000000000000000000000000000000000000000000000000000000000000000000000000000000000000000000000000000000000000000000000000000 BORUS E STUDENT                         BORDY                                                                           6545 W ARCHER ST                                                                ANYTOWN                                 MO465464514 00000004                                       1                                                                                                                                                                                                         
B2015     2448443511654657321324                      000000010000000000000000000000000000000000000000000000000000000000000000000000000000000000000000000000000000000000000000000000000000000000000000000000000000000000000000000000000000000000000000 MARTIN S GENIUS                         MARTY                                                                           4722 S PINROSE LANE                                                             SOMETOWN                                MO654566543 00000005                                       1                                                                                                                                                                                                         
B2015     2541151321541151321/4                       001000000000000000000000000000000000000000000000000000000000000000000000000000000000000000000000000000000000000000000000000000000000000000000000000000000000000000000000000000000000000000000000 ALLEN B EATON JR                        ABEJ                                                                            4115 W SEATTLE PL                                                               HISCITY                                 OR78431     00000006                                                                                                                                                                                                                                                 
C00000004      000000001000011100000000000000000000000000000000000000000000000000000000000000000000000000000000000000000000000000000000000000000000000000000000000000000000000000000000000000000000000000000000000000000000000000000000000000000000000000000000000000000000000000000000000000000000000000000000                                                                                                                                                                                                    00000007                                                                                                                                                                                                                                                 
F00000001000000000000000000000                   00000004                                                                                                                                                                                                                                                                                                                                                                                                                                                          00000008                                                                                                                                                                                                                                                 
