T2015 12123456712345         TAX GETTERS                                                                     TAX GETTERS                                                                     1709 S STATE ST                         EDMOND                                  OK73013                   00000000JACK TAXUM                              4053400697     jack76@aol.com                                                                                                                               00000001          VADVANCED MICRO SOLUTIONS                1709 S. STATE STREET                    EDMOND                                  OK73013    KYLE MCCORKLE                           4053400697                                                 
A2015      487643215     X 46                       ADVANCED MICRO SOLUTIONS                AMS                                     01709 S STATE ST       STE 14            EDMOND                                  CA7301333331353472438                                                                                                                                                                                                                                                                         00000002                                                                                                                                                                                                                                                 
B2015     2158451684158451684/1                       000000000000000000000000000000000000000001200000000000000000000000000000000000000000000000000000000000000000000000000000000000000000000000000000000000000000000000000000000000000000000000000000 BOYD, ALFRED C                          ACB                                                                             15421 W APPLEWOOD LN                                                            SOMECITY                                OH86414     00000003                                      1  2001FORD         F100                  D654DS44698SD4DDFG       XXXXXXXXXXXXXXXXXXXXXXXXXXXXXXXXXXX    2012010521 2222222                                                     20120102SSSSSSSSSSSSSSSS  
B2015     2452186411452186411/2                       000000000000000000000000000000000000000000950000000000000000000000250000000000000000000000000000000000000000000000000000000000000000000000000000000000000000000000000000000000000000000000000000 APPLEGATE, RODNEY T                     RTA                                                                             14158 S WINDGATE RD                                                             ANYTOWN                                 MO68125     00000004                                       111987DODGE        CHARGER               D4DG46D484FG6548D4G6                                            201202151 13333333                                                     20120202                  
B2015     2818783654818783654/3                       000000000000000000000000000000000000000000650000000000000000000000450000000000000000000000000000000000000000000000000000000000000000000000000000000000000000000000000000000000000000000000000000 CLYDE O POSEY                           COP                                                                             3548 N SUMMERVILLE ST                                                           WHEREVER                                KS67514     00000005                                      1112001FORD         F150                  149863327812FDGDGF4H6    AAAAAAAAAAAAAAAAAAAAAAAAAAAAAAAAAAA    201211231111234567                                                     20121228CCCCCCCCCCCCCCCC  
B2015 JAME2754181654754181654/4                       000000000000000000000000000000000000001000000000000000000000002000000000000000000000000000000000000000000000000000000000000000000000000000000000000000000000000000000000000000000000000000000000 JAMES A POTTSMYER                       JAP                                                                             6481 E OCEANVIEW DR                                                             SEASHORE                                CA31548     00000006                                      1111999BMW          320                   5654GH321J65G41J65FJK    FFFFFFFFFFFFFFFFFFFFFFFFFFFFFFFFFFF    201210151117654321                                                     20121112HHHHHHHHHHHHHHHH  
C00000004      000000000000000000000000000000000000000000000000000000000000001002800000000000000000000000000000002000700000000000000000000000000000000000000000000000000000000000000000000000000000000000000000000000000000000000000000000000000000000000000000000000000000000000000000000000000000000000000000                                                                                                                                                                                                    00000007                                                                                                                                                                                                                                                 
F00000001000000000000000000000                   00000004                                                                                                                                                                                                                                                                                                                                                                                                                                                          00000008                                                                                                                                                                                                                                                 
