T2015 12123456712345         TAX GETTERS                                                                     TAX GETTERS                                                                     1709 S STATE ST                         EDMOND                                  OK73013                   00000000JACK TAXUM                              4053400697     jack76@aol.com                                                                                                                               00000001          VADVANCED MICRO SOLUTIONS                1709 S. STATE STREET                    EDMOND                                  OK73013    KYLE MCCORKLE                           4053400697                                                 
A2015      487643215     5 237                      ADVANCED MICRO SOLUTIONS                AMS                                     01709 S STATE ST       STE 14            EDMOND                                  CA7301333331353472438                                                                                                                                                                                                                                                                         00000002                                                                                                                                                                                                                                                 
B2015 FLAT212112234216541321542312121                 000000000000000000000100000000000200000000000000000000000000000000000000000000000300000000000000000000000000000000000000000000000000000000000000000000000000000000000000000000000000000000000000 JACK FLAT                               JF                                                                              13234 S CANTON AVE                                                              SOMECITY                                OK742311347 00000003                                       A20120213AAAAAAAAAAAAAAAAAAAAAAAAAAA            1                                                                                                                                                         
B2015 BORR2254451651254451651/2                       000000000000000000001000000000002000000000000000000000000000000000000000000000003000000000000000000000000000000000000000000000000000000000000000000000000000000000000000000000000000000000000000 SAMMY BORROWER                          SB                                                                              3454 E WILLOW RD                                                                WHERECITY                               OK73151     00000004                                       B20120311AAAAAAAAAAAAAAAAAAAAAAAAAAA                                                                                                                                                                      
B2015 FART2445751321168546354685413542                000000000000000000010000000000020000000000000000000000000000000000000000000000030000000000000000000000000000000000000000000000000000000000000000000000000000000000000000000000000000000000000000 ALLEN FARTSWORTHY                       AF                                                                              15444 W SUMMER ST                                                               SOMEWHERE                               OK73544     00000005                                       C20120225AAAAAAAAAAAAAAAAAAAAAAAAAAA            1                                                                                                                                                         
B2015 OWER2152654651152654651/4                       000000000000001000000000002000000000000000000000000000000000000000000000003000000000000000000000000000000000000000000000000000000000000000000000000000000000000000000000000000000000000000000000 CLYDE D OWER JR                         CDO                                                                             5341 N SPRUCEVIEW DR                                                            HERE                                    CT13241     00000006                                       I20120615AAAAAAAAAAAAAAAAAAAAAAAAAAA            1                                                                                                                                                         
C00000004      000000000000000000000000001000011100000000002000022200000000000000000000000000000000000000000000000000000000000000003000033300000000000000000000000000000000000000000000000000000000000000000000000000000000000000000000000000000000000000000000000000000000000000000000000000000000000000000000                                                                                                                                                                                                    00000007                                                                                                                                                                                                                                                 
F00000001000000000000000000000                   00000004                                                                                                                                                                                                                                                                                                                                                                                                                                                          00000008                                                                                                                                                                                                                                                 
