T2015 12123456712345         TAX GETTERS                                                                     TAX GETTERS                                                                     1709 S STATE ST                         EDMOND                                  OK73013                   00000000JACK TAXUM                              4053400697     jack76@aol.com                                                                                                                               00000001          VADVANCED MICRO SOLUTIONS                1709 S. STATE STREET                    EDMOND                                  OK73013    KYLE MCCORKLE                           4053400697                                                 
A2015      487643215     M 124                      ADVANCED MICRO SOLUTIONS                AMS                                     01709 S STATE ST       STE 14            EDMOND                                  CA7301333331353472438                                                                                                                                                                                                                                                                         00000002                                                                                                                                                                                                                                                 
B2015 JOHN211111111165431645123454321321              000000000100000000000200000000000000000000000300000000000000000000000000000000000000000000000000000000000000000000000000000000000000000000000000000000000000000000000000000000000000000000000000 JOHN A SNIDER                           JAS                                                                             16541 W ALLGHANY AVE                                                            ANYTOWN                                 OH65454     00000003                                     2  1                                                                                                                                                                              000000000000000000000000  
B2015 JAME22222222229874653134321                     000000001000000000002000000000000000000000003000000000000000000000000000000000000000000000000000000000000000000000000000000000000000000000000000000000000000000000000000000000000000000000000000 JAMES O BRADBERRY                       JOB                                                                             5341 S ASHFORD ST                                                               SOMECITY                                KY35452     00000004                                     3   1                                                                                                                                                                             000000000000000000000000  
B2015 JERA2333333333943512313231                      000000010000000000020000000000000000000000030000000000000000000000000000000000000000000000000000000000000000000000000000000000000000000000000000000000000000000000000000000000000000000000000000 JERALD A HARTFELTOR                     JAH                                                                             6573 W APPLEGIARD DR                                                            SMALLTOWN                               TN34651     00000005                                     4 1                                                                                                                                                                               000000000000000000000000  
B2015 WILL24444444444816354321231                     001000000000002000000000000000000000003000000000000000000000000000000000000000000000000000000000000000000000000000000000000000000000000000000000000000000000000000000000000000000000000000000000 WILLIAM A PATTERSON                     WAP                                                                             6432 E FORDHAM AVE                                                              ANYCITY                                 OK81511     00000006                                     5   1                                                                                                                                                                             000000000000000000000000  
C00000004      000000001000011100000000002000022200000000000000000000000000003000033300000000000000000000000000000000000000000000000000000000000000000000000000000000000000000000000000000000000000000000000000000000000000000000000000000000000000000000000000000000000000000000000000000000000000000000000000                                                                                                                                                                                                    00000007                                                                                                                                                                                                                                                 
F00000001000000000000000000000                   00000004                                                                                                                                                                                                                                                                                                                                                                                                                                                          00000008                                                                                                                                                                                                                                                 
