T2015 12123456712345         TAX GETTERS                                                                     TAX GETTERS                                                                     1709 S STATE ST                         EDMOND                                  OK73013                   00000000JACK TAXUM                              4053400697     jack76@aol.com                                                                                                                               00000001          VADVANCED MICRO SOLUTIONS                1709 S. STATE STREET                    EDMOND                                  OK73013    KYLE MCCORKLE                           4053400697                                                 
A20151     487643215     1 1236789ABCDEFG           ADVANCED MICRO SOLUTIONS                AMS                                     01709 S STATE ST       STE 14            EDMOND                                  CA7301333331353472438                                                                                                                                                                                                                                                                         00000002                                                                                                                                                                                                                                                 
B2015 BROW2436433462416845212                         000000000100000000000200000000001500000000000000000000000000000000000400000000000500000000000600000000000700000000000800000000000600000000000100000000000200000000000300000000000400000000000500 BROWN, RANDALL C                        RCB                                                                             15324 W ASPEN                                                                   ANYCITY                                 SC10641     00000003                                    2  CUBA                                                                                                                                                                            00000000060000000000000045
B2015 STRE2159788452159788452/2                       000000001000000000002000000000015000000000000000000000000000000000004000000000005000000000006000000000007000000000008000000000009000000000001000000000002000000000003000000000004000000000005000 STREETS, GEORGE P                       GPS                                                                             6432 S GRADY AVE                                                                ANYTOWN                                 MN10631     00000004                                       PERU                                                                                                                                                                            00000000600000000000000027
B2015 GEOR2445452354445452354/3                       000000010000000000020000000000150000000000000000000000000000000000040000000000050000000000060000000000070000000000080000000000090000000000010000000000020000000000030000000000040000000000050000 GEORGE E. PATTON SR.                    GEPS                                                                            3541 E MORGAN AVE                                                               BIGCITY                                 MO54351     00000005                                    2  BRAZIL                                                                                                                                                                          00000006000000000000000029
B2015 SEAN255544432544444444444444444444              001000000000002000000000015000000000000000000000000000000000004000000000005000000000006000000000007000000000008000000000009000000000001000000000002000000000003000000000004000000000005000000000 SEAN A PETERSON III                     SAP                                                                             6541 S WILLIAMSBERG RD                                                          LITTLETOWN                              MT65654     00000006                                       CANADA                                                                                                                                                                          00600000000000000000000030
C00000004      000000001000011100000000002000022200000000015000166500000000000000000000000000000000000000000000004000044400000000005000055500000000006000066600000000007000077700000000008000088800000000009000099600000000001000011100000000002000022200000000003000033300000000004000044400000000005000055500                                                                                                                                                                                                    00000007                                                                                                                                                                                                                                                 
K00000001      000000000000001000000000000000002000000000000000015000000000000000000000000000000000000000000000000000004000000000000000005000000000000000006000000000000000007000000000000000008000000000000000009000000000000000001000000000000000002000000000000000003000000000000000004000000000000000005000                                                                                                                                                                                                    00000008                                                                                                                                                                                                       000000000000006000000000000000000000    27
K00000001      000000000000010000000000000000020000000000000000150000000000000000000000000000000000000000000000000000040000000000000000050000000000000000060000000000000000070000000000000000080000000000000000090000000000000000010000000000000000020000000000000000030000000000000000040000000000000000050000                                                                                                                                                                                                    00000009                                                                                                                                                                                                       000000000000060000000000000000000000    29
K00000001      000000001000000000000000002000000000000000015000000000000000000000000000000000000000000000000000004000000000000000005000000000000000006000000000000000007000000000000000008000000000000000009000000000000000001000000000000000002000000000000000003000000000000000004000000000000000005000000000                                                                                                                                                                                                    00000010                                                                                                                                                                                                       000000006000000000000000000000000000    30
K00000001      000000000000000100000000000000000200000000000000001500000000000000000000000000000000000000000000000000000400000000000000000500000000000000000600000000000000000700000000000000000800000000000000000600000000000000000100000000000000000200000000000000000300000000000000000400000000000000000500                                                                                                                                                                                                    00000011                                                                                                                                                                                                       000000000000000600000000000000000000    45
F00000001000000000000000000000                   00000004                                                                                                                                                                                                                                                                                                                                                                                                                                                          00000012                                                                                                                                                                                                                                                 
