T2015 12123456712345         TAX GETTERS                                                                     TAX GETTERS                                                                     1709 S STATE ST                         EDMOND                                  OK73013                   00000000JACK TAXUM                              4053400697     jack76@aol.com                                                                                                                               00000001          VADVANCED MICRO SOLUTIONS                1709 S. STATE STREET                    EDMOND                                  OK73013    KYLE MCCORKLE                           4053400697                                                 
A20151     487643215     F 1245679                  ADVANCED MICRO SOLUTIONS                AMS                                     01709 S STATE ST       STE 14            EDMOND                                  CA7301333331353472438                                                                                                                                                                                                                                                                         00000002                                                                                                                                                                                                                                                 
B2015 CARL2123233456654163546135132                   000000000100000000000200000000000000000000000300000000000400000000000500000000000600000000000000000000000700000000000000000000000000000000000000000000000000000000000000000000000000000000000000 CARL GOODMAN                            CG                                                                              1511 N EVERGREEN ST                                                             ANYWHERE                                OR741324514 00000003                                       12012                                                                                                               OR234568000000000OR                                         000000000800000000000000  
B2015 JEFF277711163566666666666666666666              000000001000000000002000000000000000000000003000000000004000000000005000000000006000000000000000000000007000000000000000000000000000000000000000000000000000000000000000000000000000000000000000 JEFFERY E PAULSON                       JEP                                                                             6441 E LAMBERT RD                                                               HICKTOWN                                AR65122     00000004                                        2012                                                                                                                                                                           00000000800000000000000005
B2015 LARR2554751351554751351/3                       000000010000000000020000000000000000000000030000000000040000000000050000000000060000000000000000000000070000000000000000000000000000000000000000000000000000000000000000000000000000000000000000 LARRY O TOLFORD                         LOT                                                                             5644 S WILFORD LANE                                                             FORTCITY                                OR98724     00000005                                       12012                                                                                                               OR163543000000000OR                                         000000080000000000000000  
B2015 JERR2444441321444441321/4                       000100000000002000000000000000000000003000000000004000000000005000000000006000000000000000000000007000000000000000000000000000000000000000000000000000000000000000000000000000000000000000000000 JERRY A PATRICK                         JAP                                                                             6571 S JEFFERSON AVE                                                            SAMETOWN                                IA98731     00000006                                        2012                                                                                                                                                                           008000000000000000000000  
C00000004      000000000100011100000000002000022200000000000000000000000000003000033300000000004000044400000000005000055500000000006000066600000000000000000000000000007000077700000000000000000000000000000000000000000000000000000000000000000000000000000000000000000000000000000000000000000000000000000000                                                                                                                                                                                                    00000007                                                                                                                                                                                                                                                 
K00000001      000000000000001000000000000000002000000000000000000000000000000000003000000000000000004000000000000000005000000000000000006000000000000000000000000000000000007000000000000000000000000000000000000000000000000000000000000000000000000000000000000000000000000000000000000000000000000000000000                                                                                                                                                                                                    00000008                                                                                                                                                                                                       000000000000008000000000000000000000    05
F00000001000000000000000000000                   00000004                                                                                                                                                                                                                                                                                                                                                                                                                                                          00000009                                                                                                                                                                                                                                                 
