T2015 12123456712345         TAX GETTERS                                                                     TAX GETTERS                                                                     1709 S STATE ST                         EDMOND                                  OK73013                   00000000JACK TAXUM                              4053400697     jack76@aol.com                                                                                                                               00000001          VADVANCED MICRO SOLUTIONS                1709 S. STATE STREET                    EDMOND                                  OK73013    KYLE MCCORKLE                           4053400697                                                 
A20151     487643215     MC12456789ABCDEFG          ADVANCED MICRO SOLUTIONS                AMS                                     01709 S STATE ST       STE 14            EDMOND                                  CA7301333331353472438                                                                                                                                                                                                                                                                         00000002                                                                                                                                                                                                                                                 
B2015 EINS123159753684781468574896436                 000000000100000000000400000000000000000000000200000000000100000000000200000000000300000000000400000000000500000000000600000000000700000000000800000000000900000000000100000000000200000000000300 ALBERT EINSTEIN                         ALBERT                                                                          16541 N ALTANTA AVE                                                             WHOKNOWS                                MI73541     00000003                                       110000000000023   PAUL FARMER    754-135-9875 850-156-48965555                                                                                                                  00000000020000000000000026
B2015 LONG12315975342549431574654651                  000000001000000000004000000000000000000000002000000000001000000000002000000000003000000000004000000000005000000000006000000000007000000000008000000000009000000000001000000000002000000000003000 ROBERT P LONG                           RPL                                                                             8902 W BELLVADER                                                                ANYTOWN                                 MI458121268 00000004                                    2  110000000000024   CLYDE WINDFREED 252-451-9765            4444                                                                                                                  00000000200000000000000026
B2015 SEYM1254568523254568523/3                       000000010000000000040000000000000000000000020000000000010000000000020000000000030000000000040000000000050000000000060000000000070000000000080000000000090000000000010000000000020000000000030000 JAMES H SEYMOUR                         JHS                                                                             4522 S ALLEGHANY AVE                                                            SOMETOWN                                VT348161547 00000005                                       120000000000025   JERRY WITFIELD 235-654-8721             3333                                                                                                                  00000002000000000000000050
B2015 DUMB1357891234357891234/4                       001000000000004000000000000000000000002000000000001000000000002000000000003000000000004000000000005000000000006000000000007000000000008000000000009000000000001000000000002000000000003000000000 PATRICK A DUMBO                         PAD                                                                             1245 N GREENWALL ST                                                             WHOKNOWS                                VT158461378 00000006                                       120000000000026   PATRICK COLUMBO 352-154-4845            1111                                                                                                                  00200000000000000000000050
C00000004      000000001000011100000000004000044400000000000000000000000000002000022200000000001000011100000000002000022200000000003000033300000000004000044400000000005000055500000000006000066600000000007000077700000000008000088800000000009000099900000000001000011100000000002000022200000000003000033300                                                                                                                                                                                                    00000007                                                                                                                                                                                                                                                 
K00000002      000000000000001100000000000000004400000000000000000000000000000000002200000000000000001100000000000000002200000000000000003300000000000000004400000000000000005500000000000000006600000000000000007700000000000000008800000000000000009900000000000000001100000000000000002200000000000000003300                                                                                                                                                                                                    00000008                                                                                                                                                                                                       000000000000002200000000000000000000    26
K00000002      000000001000010000000000004000040000000000000000000000000000002000020000000000001000010000000000002000020000000000003000030000000000004000040000000000005000050000000000006000060000000000007000070000000000008000080000000000009000090000000000001000010000000000002000020000000000003000030000                                                                                                                                                                                                    00000009                                                                                                                                                                                                       000000002000020000000000000000000000    50
F00000001000000000000000000000                   00000004                                                                                                                                                                                                                                                                                                                                                                                                                                                          00000010                                                                                                                                                                                                                                                 
