T2015 12123456712345         TAX GETTERS                                                                     TAX GETTERS                                                                     1709 S STATE ST                         EDMOND                                  OK73013                   00000000JACK TAXUM                              4053400697     jack76@aol.com                                                                                                                               00000001          VADVANCED MICRO SOLUTIONS                1709 S. STATE STREET                    EDMOND                                  OK73013    KYLE MCCORKLE                           4053400697                                                 
A2015      487643215     Q 123                      ADVANCED MICRO SOLUTIONS                AMS                                     01709 S STATE ST       STE 14            EDMOND                                  CA7301333331353472438                                                                                                                                                                                                                                                                         00000002                                                                                                                                                                                                                                                 
B2015 RUSS22322515211325453213243                     000000000100000000000200000000000300000000000000000000000000000000000000000000000000000000000000000000000000000000000000000000000000000000000000000000000000000000000000000000000000000000000000 RUSSELL MYERS                           RM                                                                              1344 S FLOWERDALE ST                                                            THERE                                   OK731541641 00000003                                       1 1                                                                                                                                                                                                       
B2015 PHIL2121451521121451521/2                       000000001000000000002000000000003000000000000000000000000000000000000000000000000000000000000000000000000000000000000000000000000000000000000000000000000000000000000000000000000000000000000000 PHIL RILEY                              PR                                                                              1344 S ANYWHERE ST                                                              SOMECITY                                OK73154     00000004                                        1                                                                                                                                                                                                        
B2015 SCOT24424816315464313421                        000000010000000000020000000000030000000000000000000000000000000000000000000000000000000000000000000000000000000000000000000000000000000000000000000000000000000000000000000000000000000000000000 SCOTT DANIELS                           SD                                                                              13245 W SOMEPLACE                                                               ACITY                                   OK73148     00000005                                        2                                                                                                                                                                                                        
B2015 ROBE2441850321441850321/4                       001000000000002000000000003000000000000000000000000000000000000000000000000000000000000000000000000000000000000000000000000000000000000000000000000000000000000000000000000000000000000000000000 ROBERT A TERRY                          RAT                                                                             6421 W ATLANTA AVE                                                              DOWHAT                                  MN98111     00000006                                        3                                                                                                                                                                                                        
C00000004      000000001000011100000000002000022200000000003000033300000000000000000000000000000000000000000000000000000000000000000000000000000000000000000000000000000000000000000000000000000000000000000000000000000000000000000000000000000000000000000000000000000000000000000000000000000000000000000000                                                                                                                                                                                                    00000007                                                                                                                                                                                                                                                 
F00000001000000000000000000000                   00000004                                                                                                                                                                                                                                                                                                                                                                                                                                                          00000008                                                                                                                                                                                                                                                 
