T2015 12123456712345         TAX GETTERS                                                                     TAX GETTERS                                                                     1709 S STATE ST                         EDMOND                                  OK73013                   00000000JACK TAXUM                              4053400697     jack76@aol.com                                                                                                                               00000001          VADVANCED MICRO SOLUTIONS                1709 S. STATE STREET                    EDMOND                                  OK73013    KYLE MCCORKLE                           4053400697                                                 
A20151     487643215     D 123467AB                 ADVANCED MICRO SOLUTIONS                AMS                                     01709 S STATE ST       STE 14            EDMOND                                  CA7301333331353472438                                                                                                                                                                                                                                                                         00000002                                                                                                                                                                                                                                                 
B2015 MCGR213122334435416543213423                    000000000100000000000200000000000300000000000400000000000000000000000600000000000700000000000000000000000000000000000500000000000900000000000000000000000000000000000000000000000000000000000000 GEORGE MCGRAW                           GM                                                                              3211 W ASPEN RD                                                                 SOMETOWN                                OK736511247 00000003                                    2  DDDDDDDDDDDDDDDDDDDDDDDDDDD                                                                                                                                                     000000000800000000000000  
B2015 PATT2444151651444151651/2                       000000001000000000002000000000003000000000004000000000000000000000006000000000007000000000000000000000000000000000005000000000009000000000000000000000000000000000000000000000000000000000000000 ROGER A PATTERSON                       RAP                                                                             3541 W WINELAND RD                                                              WINEVILLE                               MO96545     00000004                                    2  FFFFFFFFFFFFFFFFFFFFFFFFFFF                                                                                                                                                     00000000800000000000000029
B2015 BUMG2444441311444441311/3                       000000010000000000020000000000030000000000040000000000000000000000060000000000070000000000000000000000000000000000050000000000090000000000000000000000000000000000000000000000000000000000000000 THOMAS E BUMGARDNER                     TEB                                                                             6841 W APPLEWAY DR                                                              FRUITYVILLE                             AR94165     00000005                                    2  KKKKKKKKKKKKKKKKKKKKKKKKKKK                                                                                                                                                     00000008000000000000000005
B2015 BURR2676155412676155412/4                       001000000000002000000000003000000000004000000000000000000000006000000000007000000000000000000000000000000000005000000000009000000000000000000000000000000000000000000000000000000000000000000000 CURTIS A BURRIS                         CAB                                                                             6845 S SMART AVE                                                                GOTHERE                                 MS98765     00000006                                    2  HHHHHHHHHHHHHHHHHHHHHHHHHHH                                                                                                                                                     00800000000000000000000028
C00000004      000000001000011100000000002000022200000000003000033300000000004000044400000000000000000000000000006000066600000000007000077700000000000000000000000000000000000000000000005000055500000000009000099900000000000000000000000000000000000000000000000000000000000000000000000000000000000000000000                                                                                                                                                                                                    00000007                                                                                                                                                                                                                                                 
K00000001      000000000000010000000000000000020000000000000000030000000000000000040000000000000000000000000000000000060000000000000000070000000000000000000000000000000000000000000000000000050000000000000000090000000000000000000000000000000000000000000000000000000000000000000000000000000000000000000000                                                                                                                                                                                                    00000008                                                                                                                                                                                                       000000000000080000000000000000000000    05
K00000001      000000001000000000000000002000000000000000003000000000000000004000000000000000000000000000000000006000000000000000007000000000000000000000000000000000000000000000000000005000000000000000009000000000000000000000000000000000000000000000000000000000000000000000000000000000000000000000000000                                                                                                                                                                                                    00000009                                                                                                                                                                                                       000000008000000000000000000000000000    28
K00000001      000000000000001000000000000000002000000000000000003000000000000000004000000000000000000000000000000000006000000000000000007000000000000000000000000000000000000000000000000000005000000000000000009000000000000000000000000000000000000000000000000000000000000000000000000000000000000000000000                                                                                                                                                                                                    00000010                                                                                                                                                                                                       000000000000008000000000000000000000    29
F00000001000000000000000000000                   00000004                                                                                                                                                                                                                                                                                                                                                                                                                                                          00000011                                                                                                                                                                                                                                                 
