T2015 12123456712345         TAX GETTERS                                                                     TAX GETTERS                                                                     1709 S STATE ST                         EDMOND                                  OK73013                   00000000JACK TAXUM                              4053400697     jack76@aol.com                                                                                                                               00000001          VADVANCED MICRO SOLUTIONS                1709 S. STATE STREET                    EDMOND                                  OK73013    KYLE MCCORKLE                           4053400697                                                 
A2015      487643215     P 2                        ADVANCED MICRO SOLUTIONS                AMS                                     01709 S STATE ST       STE 14            EDMOND                                  CA7301333331353472438                                                                                                                                                                                                                                                                         00000002                                                                                                                                                                                                                                                 
B2015 JOSE215953456169425412434684351                 000000000000000000000100000000000000000000000000000000000000000000000000000000000000000000000000000000000000000000000000000000000000000000000000000000000000000000000000000000000000000000000000 JOSEPH A SHAREHOLDER                    JAS                                                                             5641 W ALAMO BLVD                                                               ANYTOWN                                 NY10125     00000003                                        20120224                                                    00000010COMMON                                                                                                                               
B2015 ROBE2321744651321744651/2                       000000000000000000001000000000000000000000000000000000000000000000000000000000000000000000000000000000000000000000000000000000000000000000000000000000000000000000000000000000000000000000000000 ROBERT S APPLETREE                      RSA                                                                             3541 S SOMEWHERE AVE                                                            SOMEWHERE                               NY11045     00000004                                        20120311                                                    00000010PFD                                                                                                                                  
B2015 SAND2784051654784051654/3                       000000000000000000010000000000000000000000000000000000000000000000000000000000000000000000000000000000000000000000000000000000000000000000000000000000000000000000000000000000000000000000000000 SANDY A POTTSMEYER                      SAP                                                                             3541 E APPLETON ST                                                              SOMECITY                                NY11105     00000005                                        20120423                                                    00000100COMMON                                                                                                                               
B2015 PAUL23414443416545212342421                     000000000000001000000000000000000000000000000000000000000000000000000000000000000000000000000000000000000000000000000000000000000000000000000000000000000000000000000000000000000000000000000000 PAUL I THOMLASON SR                     PITS                                                                            5411 W ALLEGHANY WAY                                                            FARCITY                                 GA54321     00000006                                        20120622                                                    00001000CLASS A                                                                                                                              
C00000004      000000000000000000000000001000011100000000000000000000000000000000000000000000000000000000000000000000000000000000000000000000000000000000000000000000000000000000000000000000000000000000000000000000000000000000000000000000000000000000000000000000000000000000000000000000000000000000000000                                                                                                                                                                                                    00000007                                                                                                                                                                                                                                                 
F00000001000000000000000000000                   00000004                                                                                                                                                                                                                                                                                                                                                                                                                                                          00000008                                                                                                                                                                                                                                                 
