T2015 12123456712345         TAX GETTERS                                                                     TAX GETTERS                                                                     1709 S STATE ST                         EDMOND                                  OK73013                   00000000JACK TAXUM                              4053400697     jack76@aol.com                                                                                                                               00000001          VADVANCED MICRO SOLUTIONS                1709 S. STATE STREET                    EDMOND                                  OK73013    KYLE MCCORKLE                           4053400697                                                 
A20151     487643215     B 234579ABC                ADVANCED MICRO SOLUTIONS                AMS                                     01709 S STATE ST       STE 14            EDMOND                                  CA7301333331353472438                                                                                                                                                                                                                                                                         00000002                                                                                                                                                                                                                                                 
B2015 RECI211122123412-1586542                        000000000000000000270000000000450000000000035000000000012000000000000000000000100000000000000000000000000100000000000200000000000300000000000400000000000000000000000000000000000000000000000000 RECIP LINE 1                            RECIP LINE 2                                                                    RECIP LINE 3                                                                    RECIP LINE 4                            MI123451111 00000003                                    2 22201201094169864561284DDDDDDDDDDDDDDDDDDDDDDDDDD             20110522 AD                                                                                                        00000000050000000000000026
B2015 RECI2211221234211221234/2                       000000000000000000600000000000700000000000000000000000000000000000000000000000001000000000000000000000001000000000002000000000003000000000004000000000000000000000000000000000000000000000000000 RECIP LINE 10                           RECIP LINE 20                                                                   RECIP LINE 30                                                                   RECIP LINE 40                           MI123452222 00000004                                    2111201202234986435379816SSSSSSSSSSSSSSSSSSSSSSSSSS             201112211BC                                                                                                        00000000500000000000000026
B2015 RECI2311221234311221234/3                       000000000000000000400000000000500000000000025000000000000000000000000000000000010000000000000000000000010000000000020000000000030000000000040000000000000000000000000000000000000000000000000000 RECIP LINE 100                          RECIP LINE 200                                                                  RECIP LINE 300                                                                  RECIP LINE 400                          VT123453333 00000005                                    2221201205124981357651365AAAAAAAAAAAAAAAAAAAAAAAAAA             20120208 DW                                                                                                        00000005000000000000000050
B2015 RECI24112212344                                 000000000000004600000000004700000000000000000000000000200000000000000000001000000000000000000000001000000000002000000000003000000000004000000000000000000000000000000000000000000000000000000000 RECIP LINE 1000                         RECIP LINE 2000                                                                 RECIP LINE 3000                                                                 RECIP LINE 4000                         VT123454444 00000006                                    2 11201206134984657146748GGGGGGGGGGGGGGGGGGGGGGGGGG             20120512 X                                                                                                         00500000000000000000000050
C00000004      000000000000000000000000004601270000000000004701650000000000000000060000000000000000212000000000000000000000000000001000111000000000000000000000000000001000011100000000002000022200000000003000033300000000004000044400000000000000000000000000000000000000000000000000000000000000000000000000                                                                                                                                                                                                    00000007                                                                                                                                                                                                                                                 
K00000002      000000000000000000000000000000870000000000000001150000000000000000035000000000000000012000000000000000000000000000000000101000000000000000000000000000000000001100000000000000002200000000000000003300000000000000004400000000000000000000000000000000000000000000000000000000000000000000000000                                                                                                                                                                                                    00000008                                                                                                                                                                                                       000000000000005500000000000000000000    26
K00000002      000000000000000000000000004600400000000000004700500000000000000000025000000000000000200000000000000000000000000000001000010000000000000000000000000000001000010000000000002000020000000000003000030000000000004000040000000000000000000000000000000000000000000000000000000000000000000000000000                                                                                                                                                                                                    00000009                                                                                                                                                                                                       000000005000050000000000000000000000    50
F00000001000000000000000000000                   00000004                                                                                                                                                                                                                                                                                                                                                                                                                                                          00000010                                                                                                                                                                                                                                                 
