T2015 12123456712345         TAX GETTERS                                                                     TAX GETTERS                                                                     1709 S STATE ST                         EDMOND                                  OK73013                   00000000JACK TAXUM                              4053400697     jack76@aol.com                                                                                                                               00000001          VADVANCED MICRO SOLUTIONS                1709 S. STATE STREET                    EDMOND                                  OK73013    KYLE MCCORKLE                           4053400697                                                 
A20151     487643215     6 12345689ABD              ADVANCED MICRO SOLUTIONS                AMS                                     01709 S STATE ST       STE 14            EDMOND                                  CA7301333331353472438                                                                                                                                                                                                                                                                         00000002                                                                                                                                                                                                                                                 
B2015 RECI2444221234164536784+654941351               000000000100000000000200000000000300000000000400000000000500000000000600000000000000000000000800000000000900000000000100000000000200000000000000000000001100000000000000000000000000000000000000 RECIP LINE 1                            RECIP LINE 2                                                                    RECIP LINE 3                                                                    RECIP LINE 4                            CA123451111 00000003                                    2  7.00                                    555555555555                                                                753159852456                                                00000000010000000000000006
B2015 RECI2433221234211221234/2                       000000001000000000002000000000003000000000004000000000005000000000006000000000000000000000008000000000009000000000001000000000002000000000000000000000000000000000000000000000000000000000000000 RECIP LINE 10                           RECIP LINE 20                                                                   RECIP LINE 30                                                                   RECIP LINE 40                           CA123452222 00000004                                       70.00                                   444444444444                                                                753159852456                                                00000000100000000000000006
B2015 RECI25112212343                                 000000010000000000020000000000030000000000040000000000050000000000060000000000000000000000080000000000090000000000010000000000020000000000000000000000000000000000000000000000000000000000000000 RECIP LINE 100                          RECIP LINE 200                                                                  RECIP LINE 300                                                                  RECIP LINE 400                          CA123453333 00000005                                    2  700.00                                  333333333333                                                                753159852456                                                00000001000000000000000006
B2015 RECI2611221234411221234/4                       001000000000002000000000003000000000004000000000005000000000006000000000000000000000008000000000009000000000001000000000002000000000000000000000000000000000000000000000000000000000000000000000 RECIP LINE 1000                         RECIP LINE 2000                                                                 RECIP LINE 3000                                                                 RECIP LINE 4000                         OK123454444 00000006                                    2  7000000000                              222222222222                                                                753159852456                                                001000000000000000000000  
C00000004      000000001000011100000000002000022200000000003000033300000000004000044400000000005000055500000000006000066600000000000000000000000000008000088800000000009000099900000000001000011100000000002000022200000000000000000000000000000000001100000000000000000000000000000000000000000000000000000000                                                                                                                                                                                                    00000007                                                                                                                                                                                                                                                 
K00000003      000000000000011100000000000000022200000000000000033300000000000000044400000000000000055500000000000000066600000000000000000000000000000000088800000000000000099900000000000000011100000000000000022200000000000000000000000000000000001100000000000000000000000000000000000000000000000000000000                                                                                                                                                                                                    00000008                                                                                                                                                                                                       000000000000011100000000000000000000    06
F00000001000000000000000000000                   00000004                                                                                                                                                                                                                                                                                                                                                                                                                                                          00000009                                                                                                                                                                                                                                                 
