T2015 12123456712345         TAX GETTERS                                                                     TAX GETTERS                                                                     1709 S STATE ST                         EDMOND                                  OK73013                   00000000JACK TAXUM                              4053400697     jack76@aol.com                                                                                                                               00000001          VADVANCED MICRO SOLUTIONS                1709 S. STATE STREET                    EDMOND                                  OK73013    KYLE MCCORKLE                           4053400697                                                 
A20151     487643215     7 123456789A               ADVANCED MICRO SOLUTIONS                AMS                                     01709 S STATE ST       STE 14            EDMOND                                  CA7301333331353472438                                                                                                                                                                                                                                                                         00000002                                                                                                                                                                                                                                                 
B2015 AAAA244348165114643647684761361                 000000000100000000000200000000000300000000000400000000000500000000000600000000000700000000000800000000000900000000000100000000000000000000000000000000000000000000000000000000000000000000000000 AAAAAAAAAAAAA  BBBBBBBBBBBBBB           CCCCCCCCCCCCC  DDDDDDDDDDDDDD                                                   1514 W WESTERN AVE                                                              ANYTOWN                                 OH73151     00000003                                    2                                                                                                                                                                                  00000000000000000000000039
B2015 DANN2122451654185-64-6542                       000000001000000000002000000000003000000000004000000000005000000000006000000000007000000000008000000000009000000000001000000000000000000000000000000000000000000000000000000000000000000000000000 DANNY I PAULSON                         DIP                                                                             7511 N TRENTON AVE                                                              SOMEWHERE                               MI98151     00000004                                    2                                                                                                                                                                                  00000000000000000000000026
B2015 ARNO2545481311545481311/3                       000000010000000000020000000000030000000000040000000000050000000000060000000000070000000000080000000000090000000000010000000000000000000000000000000000000000000000000000000000000000000000000000 ARNOLD P EDWARD                         APE                                                                             5641 W SEAGATE AVE                                                              ANYTOWN                                 MI84411     00000005                                    2                                                                                                                                                                                  00000000000000000000000026
B2015 TIMO2125182612125182612/4                       001000000000002000000000003000000000004000000000005000000000006000000000007000000000008000000000009000000000001000000000000000000000000000000000000000000000000000000000000000000000000000000000 TIMOTHY A POTTER JR                     TAPJ                                                                            6881 S PROCTOR BLVD                                                             WESTGATE                                VT64121     00000006                                    2                                                                                                                                                                                  00000000000000000000000050
C00000004      000000001000011100000000002000022200000000003000033300000000004000044400000000005000055500000000006000066600000000007000077700000000008000088800000000009000099900000000001000011100000000000000000000000000000000000000000000000000000000000000000000000000000000000000000000000000000000000000                                                                                                                                                                                                    00000007                                                                                                                                                                                                                                                 
K00000002      000000000000011000000000000000022000000000000000033000000000000000044000000000000000055000000000000000066000000000000000077000000000000000088000000000000000099000000000000000011000000000000000000000000000000000000000000000000000000000000000000000000000000000000000000000000000000000000000                                                                                                                                                                                                    00000008                                                                                                                                                                                                       000000000000000000000000000000000000    26
K00000001      000000000000000100000000000000000200000000000000000300000000000000000400000000000000000500000000000000000600000000000000000700000000000000000800000000000000000900000000000000000100000000000000000000000000000000000000000000000000000000000000000000000000000000000000000000000000000000000000                                                                                                                                                                                                    00000009                                                                                                                                                                                                       000000000000000000000000000000000000    39
K00000001      000000001000000000000000002000000000000000003000000000000000004000000000000000005000000000000000006000000000000000007000000000000000008000000000000000009000000000000000001000000000000000000000000000000000000000000000000000000000000000000000000000000000000000000000000000000000000000000000                                                                                                                                                                                                    00000010                                                                                                                                                                                                       000000000000000000000000000000000000    50
F00000001000000000000000000000                   00000004                                                                                                                                                                                                                                                                                                                                                                                                                                                          00000011                                                                                                                                                                                                                                                 
