T2015 12123456712345         TAX GETTERS                                                                     TAX GETTERS                                                                     1709 S STATE ST                         EDMOND                                  OK73013                   00000000JACK TAXUM                              4053400697     jack76@aol.com                                                                                                                               00000001          VADVANCED MICRO SOLUTIONS                1709 S. STATE STREET                    EDMOND                                  OK73013    KYLE MCCORKLE                           4053400697                                                 
A2015      487643215     4 24                       ADVANCED MICRO SOLUTIONS                AMS                                     01709 S STATE ST       STE 14            EDMOND                                  CA7301333331353472438                                                                                                                                                                                                                                                                         00000002                                                                                                                                                                                                                                                 
B2015 BEGG2111223333165423156421131                   000000000000000000000100000000000000000000000200000000000000000000000000000000000000000000000000000000000000000000000000000000000000000000000000000000000000000000000000000000000000000000000000 ROGER BEGGER                            RB                                                                              4114 N TRENCH ST                                                                ANYTOWN                                 OK736514314 00000003                                        20120212XXXXXXXXXXXXXXXXXXXXXXXXXXX                                                                                                                                                                      
B2015 PAYL2159453556159453556/2                       000000000000000000001000000000000000000000002000000000000000000000000000000000000000000000000000000000000000000000000000000000000000000000000000000000000000000000000000000000000000000000000000 ROBERT PAYLESS                          RP                                                                              3541 W ANYSTREET                                                                SOMETOWN                                OK73461     00000004                                       120120301XXXXXXXXXXXXXXXXXXXXXXXXXXX                                                                                                                                                                      
B2015 HUGH24457816545645675152465131                  000000000000000000010000000000000000000000020000000000000000000000000000000000000000000000000000000000000000000000000000000000000000000000000000000000000000000000000000000000000000000000000000 ANTHONY HUGHES                          AH                                                                              3541 S SOMESTREET                                                               ANYTOWN                                 OK73544     00000005                                        20120325XXXXXXXXXXXXXXXXXXXXXXXXXXX                                                                                                                                                                      
B2015 BOWE2152451651152451651/4                       000000000000001000000000000000000000002000000000000000000000000000000000000000000000000000000000000000000000000000000000000000000000000000000000000000000000000000000000000000000000000000000000 JIMMY T. BOWERS                         JTB                                                                             1354 S AMHEREST AVE                                                             SPRING CITY                             OH54521     00000006                                       120120405XXXXXXXXXXXXXXXXXXXXXXXXXXX                                                                                                                                                                      
C00000004      000000000000000000000000001000011100000000000000000000000000002000022200000000000000000000000000000000000000000000000000000000000000000000000000000000000000000000000000000000000000000000000000000000000000000000000000000000000000000000000000000000000000000000000000000000000000000000000000                                                                                                                                                                                                    00000007                                                                                                                                                                                                                                                 
F00000001000000000000000000000                   00000004                                                                                                                                                                                                                                                                                                                                                                                                                                                          00000008                                                                                                                                                                                                                                                 
