T2015 12123456712345         TAX GETTERS                                                                     TAX GETTERS                                                                     1709 S STATE ST                         EDMOND                                  OK73013                   00000000JACK TAXUM                              4053400697     jack76@aol.com                                                                                                                               00000001          VADVANCED MICRO SOLUTIONS                1709 S. STATE STREET                    EDMOND                                  OK73013    KYLE MCCORKLE                           4053400697                                                 
A20151     487643215     9 12345689AB               ADVANCED MICRO SOLUTIONS                AMS                                     01709 S STATE ST       STE 14            EDMOND                                  CA7301333331353472438                                                                                                                                                                                                                                                                         00000002                                                                                                                                                                                                                                                 
B2015 RALP21112233330016846865413578                  000000000100000000000200000000000300000000000400000000000500000000000600000000000000000000000700000000000800000000000100000000000200000000000000000000000000000000000000000000000000000000000000 RALPH C BROWN                           RCB                                                                             16515 W TREAT AVE                                                               ANYTOWN                                 MI151159999 00000003                                     K 11 052011                                                                                                                                                                       00000000090000000000040026
B2015     2222334444498513461354131321                000000001000000000002000000000003000000000004000000000005000000000006000000000000000000000007000000000008000000000001000000000002000000000000000000000000000000000000000000000000000000000000000 ROBERT E TIMMONS                        RET                                                                             12345 W SIMBOB RD                                                               NOWHERE                                 OR684721348 00000004                                     5  11102011                                                                                                           31165132000000000OR                                         000000009000000000004000  
B2015 GREE2333445678994984561357454132                000000010000000000020000000000030000000000040000000000050000000000060000000000000000000000070000000000080000000000000000000000020000000000000000000000000000000000000000000000000000000000000000 SAMUAL I GREENHOUSE                     SIG                                                                             6148 W FERNSDALE RD                                                             SOMEWHERE                               VT756144821 00000005                                     6    152012                                                                                                                                                                       00000009000000000004000050
B2015     24445566669479843212374481                  010000000000020000000000030000000000040000000000050000000000060000000000000000000000000070000000080000000000010000000000000200000000000000000000000000000000000000000000000000000000000000000000 DONALD A KINKADE                        DAK                                                                             3215 S TREESDALE ST                                                             ANTOWN                                  OR344871351 00000006                                     5  11  2010                                                                                                           23146541000000000OR                                         000900000000000400000000  
C00000004      000000010000011100000000020000022200000000030000033300000000040000044400000000050000055500000000060000066600000000000000000000000000000070077700000000080000088800000000010000001100000000000200022200000000000000000000000000000000000000000000000000000000000000000000000000000000000000000000                                                                                                                                                                                                    00000007                                                                                                                                                                                                                                                 
K00000001      000000000000000100000000000000000200000000000000000300000000000000000400000000000000000500000000000000000600000000000000000000000000000000000700000000000000000800000000000000000100000000000000000200000000000000000000000000000000000000000000000000000000000000000000000000000000000000000000                                                                                                                                                                                                    00000008                                                                                                                                                                                                       000000000000000900000000000000000400    26
K00000001      000000000000010000000000000000020000000000000000030000000000000000040000000000000000050000000000000000060000000000000000000000000000000000070000000000000000080000000000000000000000000000000000020000000000000000000000000000000000000000000000000000000000000000000000000000000000000000000000                                                                                                                                                                                                    00000009                                                                                                                                                                                                       000000000000090000000000000000040000    50
F00000001000000000000000000000                   00000004                                                                                                                                                                                                                                                                                                                                                                                                                                                          00000010                                                                                                                                                                                                                                                 
