T2015 12123456712345         TAX GETTERS                                                                     TAX GETTERS                                                                     1709 S STATE ST                         EDMOND                                  OK73013                   00000000JACK TAXUM                              4053400697     jack76@aol.com                                                                                                                               00000001          VADVANCED MICRO SOLUTIONS                1709 S. STATE STREET                    EDMOND                                  OK73013    KYLE MCCORKLE                           4053400697                                                 
A20151     487643215     A 12345678ABCDE            ADVANCED MICRO SOLUTIONS                AMS                                     01709 S STATE ST       STE 14            EDMOND                                  CA7301333331353472438                                                                                                                                                                                                                                                                         00000002                                                                                                                                                                                                                                                 
B2015 ZECI1121221234121221234/1                       000000000100000000000200000000000300000000000400000000000500000000000600000000000700000000000800000000000000000000000900000000000200000000000300000000000600000000000700000000000000000000000000 ZECIP TINE                              RECIP LINE 2                                                                    RECIP LINE 3                                                                    RECIP LINE 4                            OR123451111 00000003                                    2                                                                                                                      12123456000000000OR000000000500                             00000000040000000000000031
B2015 ROBE2159453211159453211/2                       000000001000000000002000000000003000000000004000000000005000000000006000000000007000000000008000000000000000000000009000000000002000000000003000000000006000000000007000000000000000000000000000 ROBERT C CONNORS                        RC                                                                              6541 W NOWHERE AVE                                                              SOMEWHERE                               CO965345244 00000004                                    2                                                                                                                                                                                  00000000400000000000000031
B2015 RECI2311221234311221234/3                       000000010000000000020000000000030000000000040000000000050000000000060000000000070000000000080000000000000000000000090000000000020000000000030000000000060000000000070000000000000000000000000000 RECIP LINE 100                          RECIP LINE 200                                                                  RECIP LINE 300                                                                  RECIP LINE 400                          OR123453333 00000005                                    2  1                                                                                                                   12123456000000000OR000000050000                             00000004000000000000000031
B2015 RECI2211221234211221234/4                       001000000000002000000000003000000000004000000000005000000000006000000000007000000000008000000000000000000000009000000000002000000000003000000000006000000000007000000000000000000000000000000000 FRED G MERTZ JR                         FGM                                                                             RECIP LINE 30                                                                   RECIP LINE 40                           MI123452222 00000006                                    2  1                                                                                                                                                                               00400000000000000000000031
C00000004      000000001000011100000000002000022200000000003000033300000000004000044400000000005000055500000000006000066600000000007000077700000000008000088800000000000000000000000000009000099900000000002000022200000000003000033300000000006000066600000000007000077700000000000000000000000000000000000000                                                                                                                                                                                                    00000007                                                                                                                                                                                                                                                 
K00000004      000000001000011100000000002000022200000000003000033300000000004000044400000000005000055500000000006000066600000000007000077700000000008000088800000000000000000000000000009000099900000000002000022200000000003000033300000000006000066600000000007000077700000000000000000000000000000000000000                                                                                                                                                                                                    00000008                                                                                                                                                                                                       000000004000044400000000000000000000    31
F00000001000000000000000000000                   00000004                                                                                                                                                                                                                                                                                                                                                                                                                                                          00000009                                                                                                                                                                                                                                                 
