T2015 12123456712345         TAX GETTERS                                                                     TAX GETTERS                                                                     1709 S STATE ST                         EDMOND                                  OK73013                   00000000JACK TAXUM                              4053400697     jack76@aol.com                                                                                                                               00000001          VADVANCED MICRO SOLUTIONS                1709 S. STATE STREET                    EDMOND                                  OK73013    KYLE MCCORKLE                           4053400697                                                 
A2015      487643215     T 12                       ADVANCED MICRO SOLUTIONS                AMS                                     01709 S STATE ST       STE 14            EDMOND                                  CA7301333331353472438                                                                                                                                                                                                                                                                         00000002                                                                                                                                                                                                                                                 
B2015 BERR246518131154322312                          000000000100000000000200000000000000000000000000000000000000000000000000000000000000000000000000000000000000000000000000000000000000000000000000000000000000000000000000000000000000000000000000 BERRY O BEAVERS                         BOB                                                                             15432 W TRIPIHOE                                                                YIPSEE                                  NJ13451     00000003                                       1222334444GEORGE BLANKENSHIP                      12455 W 69TH AVE                        ANYCITY                                 NJ1351445121        1                         000000000000000000000000  
B2015 CLAU2461155641461155641/2                       000000001000000000002000000000000000000000000000000000000000000000000000000000000000000000000000000000000000000000000000000000000000000000000000000000000000000000000000000000000000000000000000 CLAUDE A PEPPER                         CAP                                                                             15441 S CRABAPPLE RD                                                            WAYWARD                                 ME18342     00000004                                       2333445555FFFFFFFFFFFFFFFFFFFFFFFFFFF             1234 W ALLEGHANY PL                     ANYTOWN                                 CT134514872220120521                          000000000000000000000000  
B2015 SALL246118132174651121241560515152              000000010000000000020000000000000000000000000000000000000000000000000000000000000000000000000000000000000000000000000000000000000000000000000000000000000000000000000000000000000000000000000000 SALLY A PETERSON                        SAP                                                                             1641 W DENVER AVE                                                               SALTWATER                               UT67421     00000005                                       2444556666DDDDDDDDDDDDDDDDDDDDDDDDDDD             3214 S ANYWHERE BLVD                    SOMETOWN                                NH164517845         1                         000000000000000000000000  
B2015 BRUC2475151311475151311/4                       001000000000002000000000000000000000000000000000000000000000000000000000000000000000000000000000000000000000000000000000000000000000000000000000000000000000000000000000000000000000000000000000 BRUCE A TRUMAN                          BAT                                                                             2461 E TREMONT ST                                                               DONESVILLE                              NY10111     00000006                                       1555667777AAAAAAAAAAAAAAAAAAAAAAAAAAA             2641 N APPLETON ST W                    ANYTOWN                                 LA6784146512201207121                         000000000000000000000000  
C00000004      000000001000011100000000002000022200000000000000000000000000000000000000000000000000000000000000000000000000000000000000000000000000000000000000000000000000000000000000000000000000000000000000000000000000000000000000000000000000000000000000000000000000000000000000000000000000000000000000                                                                                                                                                                                                    00000007                                                                                                                                                                                                                                                 
F00000001000000000000000000000                   00000004                                                                                                                                                                                                                                                                                                                                                                                                                                                          00000008                                                                                                                                                                                                                                                 
