T2015 12123456712345         TAX GETTERS                                                                     TAX GETTERS                                                                     1709 S STATE ST                         EDMOND                                  OK73013                   00000000JACK TAXUM                              4053400697     jack76@aol.com                                                                                                                               00000001          VADVANCED MICRO SOLUTIONS                1709 S. STATE STREET                    EDMOND                                  OK73013    KYLE MCCORKLE                           4053400697                                                 
A2015      487643215     N 34                       ADVANCED MICRO SOLUTIONS                AMS                                     01709 S STATE ST       STE 14            EDMOND                                  CA7301333331353472438                                                                                                                                                                                                                                                                         00000002                                                                                                                                                                                                                                                 
B2015     211122333316576465468465456                 000000000000000000000000000000000100000000000200000000000000000000000000000000000000000000000000000000000000000000000000000000000000000000000000000000000000000000000000000000000000000000000000 RALPH A THORNDYCK                       RAT                                                                             4813 W TRUSDALE PL                                                              ANYTOWN                                 OK74125     00000003                                       201202122012061000000001    NNNNNNNNNNNNNNNNNNNNNNNNNNN LLLLLLLLLLLL                                                                                                                                      
B2015     222233444433                                000000000000000000000000000000001000000000002000000000000000000000000000000000000000000000000000000000000000000000000000000000000000000000000000000000000000000000000000000000000000000000000000 CLARENCE P APPLEBUAM                    CPA                                                                             2568 W NOGALUS ST                                                               SMALLTOWN                               KS78543     00000004                                       201202222012071500000010    FFFFFFFFFFFFFFFFFFFFFFFFFFF SSSSSSSSSSSS                                                                                                                                      
B2015     2333445555166545165848561561                000000000000000000000000000000002200000000002900000000000000000000000000000000000000000000000000000000000000000000000000000000000000000000000000000000000000000000000000000000000000000000000000 TERRY R SWARTZERNAGER                   TRS                                                                             4568 W ALBANY AVE                                                               ANYTOWN                                 CA984214814 00000005                                       201211232013062400000250    AAAAAAAAAAAAAAAAAAAAAAAAAAA BBBBBBBBBBBB                                                                                                                                      
B2015     244455666686947165413524245416              000000000000000000000000000000001500000000002300000000000000000000000000000000000000000000000000000000000000000000000000000000000000000000000000000000000000000000000000000000000000000000000000 BUFORD V WISENHIEMER                    BVW                                                                             1542 S SOMEWHERE PL                                                             ANYTON                                  CA987844444 00000006                                       201212122013101000000150    AAAAAAAAAAAAAAAAAAAAAAAAAAA BBBBBBBBBBBB                                                                                                                                      
C00000004      000000000000000000000000000000000000000000000000004800000000000000007400000000000000000000000000000000000000000000000000000000000000000000000000000000000000000000000000000000000000000000000000000000000000000000000000000000000000000000000000000000000000000000000000000000000000000000000000                                                                                                                                                                                                    00000007                                                                                                                                                                                                                                                 
F00000001000000000000000000000                   00000004                                                                                                                                                                                                                                                                                                                                                                                                                                                          00000008                                                                                                                                                                                                                                                 
