T2015 12123456712345         TAX GETTERS                                                                     TAX GETTERS                                                                     1709 S STATE ST                         EDMOND                                  OK73013                   00000000JACK TAXUM                              4053400697     jack76@aol.com                                                                                                                               00000001          VADVANCED MICRO SOLUTIONS                1709 S. STATE STREET                    EDMOND                                  OK73013    KYLE MCCORKLE                           4053400697                                                 
A2015      487643215     Z 3458                     ADVANCED MICRO SOLUTIONS                AMS                                     01709 S STATE ST       STE 14            EDMOND                                  CA7301333331353472438                                                                                                                                                                                                                                                                         00000002                                                                                                                                                                                                                                                 
B2015     233344555522987465164651352                 000000000000000000000000000000000100000000000200000000000300000000000000000000000000000000000400000000000000000000000000000000000000000000000000000000000000000000000000000000000000000000000000 ALFRED L BLOOMBERG                      ALB                                                                             4581 E JASPER AVE                                                               XTOWN                                   CO354824586 00000003                                       20120212201206120000000120120723                                                                                                                                                                          
B2015     244455666677                                000000000000000000000000000000001000000000002000000000003000000000000000000000000000000000004000000000000000000000000000000000000000000000000000000000000000000000000000000000000000000000000000 DONALD A DUCK                           DAD                                                                             6481 E DUCKWORTH LN                                                             ANYCITY                                 MO845214568 00000004                                       20120309201208110000001020121012                                                                                                                                                                          
B2015     233344555558687485149684765324              000000000000000000000000000000001700000000002400000000002500000000000000000000000000000000002550000000000000000000000000000000000000000000000000000000000000000000000000000000000000000000000000 EDGER G RONERTSON                       EGR                                                                             3451 N ANYWHERE LN                                                              ANYCITY                                 CA987453333 00000005                                       20121012201302120000011020130311                                                                                                                                                                          
B2015     2444556666896746534184651214                000000000000000000000000000000001700000000002300000000002350000000000000000000000000000000002400000000000000000000000000000000000000000000000000000000000000000000000000000000000000000000000000 ROBERT S GRANT                          RSG                                                                             6545 E WHEREISIT PL                                                             ANYCITY                                 CA98486     00000006                                       20120712201302120000014020130115                                                                                                                                                                          
C00000004      000000000000000000000000000000000000000000000000004500000000000000006900000000000000008150000000000000000000000000000000000000000000000000009350000000000000000000000000000000000000000000000000000000000000000000000000000000000000000000000000000000000000000000000000000000000000000000000000                                                                                                                                                                                                    00000007                                                                                                                                                                                                                                                 
F00000001000000000000000000000                   00000004                                                                                                                                                                                                                                                                                                                                                                                                                                                          00000008                                                                                                                                                                                                                                                 
