T2015 12123456712345         TAX GETTERS                                                                     TAX GETTERS                                                                     1709 S STATE ST                         EDMOND                                  OK73013                   00000000JACK TAXUM                              4053400697     jack76@aol.com                                                                                                                               00000001          VADVANCED MICRO SOLUTIONS                1709 S. STATE STREET                    EDMOND                                  OK73013    KYLE MCCORKLE                           4053400697                                                 
A2015      487643215     V 12                       ADVANCED MICRO SOLUTIONS                AMS                                     01709 S STATE ST       STE 14            EDMOND                                  CA7301333331353472438                                                                                                                                                                                                                                                                         00000002                                                                                                                                                                                                                                                 
B2015 ALBE244785165154120746354635413513              000000000100000000000200000000000000000000000000000000000000000000000000000000000000000000000000000000000000000000000000000000000000000000000000000000000000000000000000000000000000000000000000 ALBERT EINSTEIN                         AE                                                                              16541 N ATLANTA AVE                                                             WHOKNOWS                                OK73541     00000003                                                                                                                                                                                                                                                 
B2015 RALP2664151631664151631/2                       000000001000000000002000000000000000000000000000000000000000000000000000000000000000000000000000000000000000000000000000000000000000000000000000000000000000000000000000000000000000000000000000 RALPH ALEXANDER                         RA                                                                              3541 S TRENTON PL                                                               WHOCARES                                OK73161     00000004                                                                                                                                                                                                                                                 
B2015 HUBE248115163164168546513534321                 000000010000000000020000000000000000000000000000000000000000000000000000000000000000000000000000000000000000000000000000000000000000000000000000000000000000000000000000000000000000000000000000 HUBERT SWATMYER                         HS                                                                              2314 E RENTON AVE                                                               DONTKNOW                                OK73511     00000005                                                                                                                                                                                                                                                 
B2015 EDGA2484141611484141611/4                       000000100000000000200000000000000000000000000000000000000000000000000000000000000000000000000000000000000000000000000000000000000000000000000000000000000000000000000000000000000000000000000000 EDGAR A POE                             EAP                                                                             4811 W ALLENDALE DR                                                             NEVERMORE                               CT21465     00000006                                                                                                                                                                                                                                                 
C00000004      000000000000111100000000000000222200000000000000000000000000000000000000000000000000000000000000000000000000000000000000000000000000000000000000000000000000000000000000000000000000000000000000000000000000000000000000000000000000000000000000000000000000000000000000000000000000000000000000                                                                                                                                                                                                    00000007                                                                                                                                                                                                                                                 
F00000001000000000000000000000                   00000004                                                                                                                                                                                                                                                                                                                                                                                                                                                          00000008                                                                                                                                                                                                                                                 
