T2015 12123456712345         TAX GETTERS                                                                     TAX GETTERS                                                                     1709 S STATE ST                         EDMOND                                  OK73013                   00000000JACK TAXUM                              4053400697     jack76@aol.com                                                                                                                               00000001          VADVANCED MICRO SOLUTIONS                1709 S. STATE STREET                    EDMOND                                  OK73013    KYLE MCCORKLE                           4053400697                                                 
A20151     487643215     L 123456789ABCD            ADVANCED MICRO SOLUTIONS                AMS                                     01709 S STATE ST       STE 14            EDMOND                                  CA7301333331353472438                                                                                                                                                                                                                                                                         00000002                                                                                                                                                                                                                                                 
B2015 RECI2111221234146543372346841                   000000000100000000000200000000000300000000000400000000000500000000000600000000000500000000000800000000000900000000000100000000000200000000000300000000000400000000000000000000000000000000000000 RECIP LINE 1                            RECIP LINE 2                                                                    RECIP LINE 3                                                                    RECIP LINE 4                            CA123451111 00000003                                       1   12015FD      DD20130612                                                                                                                                                                             06
B2015 RECI2211221234211221234/2                       000000001000000000002000000000003000000000004000000000005000000000006000000000005000000000008000000000009000000000001000000000002000000000003000000000004000000000000000000000000000000000000000 RECIP LINE 10                           RECIP LINE 20                                                                   RECIP LINE 30                                                                   RECIP LINE 40                           CA123452222 00000004                                        1  12015PL      QR20140712AG                                                                                                                                                                           06
B2015 RECI23112212343                                 000000010000000000020000000000030000000000040000000000050000000000060000000000050000000000080000000000090000000000010000000000020000000000030000000000040000000000000000000000000000000000000000 RECIP LINE 100                          RECIP LINE 200                                                                  RECIP LINE 300                                                                  RECIP LINE 400                          CA123453333 00000005                                         1 12014EO      QR20130915CE                                                                                                                                                                           06
B2015 RECI2411221234411221234/4                       000000100000000000200000000000300000000000400000000000500000000000600000000000000000000000800000000000900000000000100000000000000000000000000000000000000000000000000000000000000000000000000000 RECIP LINE 1000                         RECIP LINE 2000                                                                 RECIP LINE 3000                                                                 RECIP LINE 4000                         OK123454444 00000006                                          1                                                                                                                                                                                                      
C00000004      000000000000111100000000000000222200000000000000333300000000000000444400000000000000555500000000000000666600000000000000055500000000000000888800000000000000999900000000000000111100000000000000022200000000000000033300000000000000044400000000000000000000000000000000000000000000000000000000                                                                                                                                                                                                    00000007                                                                                                                                                                                                                                                 
K00000003      000000000000011100000000000000022200000000000000033300000000000000044400000000000000055500000000000000066600000000000000055500000000000000088800000000000000099900000000000000011100000000000000022200000000000000033300000000000000044400000000000000000000000000000000000000000000000000000000                                                                                                                                                                                                    00000008                                                                                                                                                                                                       000000000000000000000000000000000000    06
F00000001000000000000000000000                   00000004                                                                                                                                                                                                                                                                                                                                                                                                                                                          00000009                                                                                                                                                                                                                                                 
