T2015 12123456712345         TAX GETTERS                                                                     TAX GETTERS                                                                     1709 S STATE ST                         EDMOND                                  OK73013                   00000000JACK TAXUM                              4053400697     jack76@aol.com                                                                                                                               00000001          VADVANCED MICRO SOLUTIONS                1709 S. STATE STREET                    EDMOND                                  OK73013    KYLE MCCORKLE                           4053400697                                                 
A2015      487643215     K 12345                    ADVANCED MICRO SOLUTIONS                AMS                                     01709 S STATE ST       STE 14            EDMOND                                  CA7301333331353472438                                                                                                                                                                                                                                                                         00000002                                                                                                                                                                                                                                                 
B2015 JOHN21111111118713584685                        000000000100000000000200000000000300000000000400000000000500000000000000000000000000000000000000000000000000000000000000000000000000000000000000000000000000000000000000000000000000000000000000 JOHN A BARTLETT                         JAB                                                                             16345 S ASHFORD AVE                                                             ANYTOWN                                 OH84561     00000003                                        1                                                                                                                                                                                                        
B2015 JAME222222222265432135132157452                 000000001000000000002000000000003000000000004000000000005000000000000000000000000000000000000000000000000000000000000000000000000000000000000000000000000000000000000000000000000000000000000000 JAMES O TILLMAN                         JOT                                                                             5411 N BRADFORD ST                                                              SOMETOWN                                KY81311     00000004                                         1                                                                                                                                                                                                       
B2015 RALP23333333339132165465432                     000000010000000000020000000000030000000000040000000000050000000000000000000000000000000000000000000000000000000000000000000000000000000000000000000000000000000000000000000000000000000000000000 RALPH A PATTERSON                       RAP                                                                             9125 W DELMAR BLVD                                                              SOMECITY                                CA91511     00000005                                       1                                                                                                                                                                                                         
B2015 WILL2444444444341651465451                      000000100000000000200000000000300000000000400000000000500000000000000000000000000000000000000000000000000000000000000000000000000000000000000000000000000000000000000000000000000000000000000000 WILLIAM A DARTMEYER                     WAD                                                                             9845 E TRESDALE RD                                                              ANYCITY                                 OK34651     00000006                                         1                                                                                                                                                                                                       
C00000004      000000000000111100000000000000222200000000000000333300000000000000444400000000000000555500000000000000000000000000000000000000000000000000000000000000000000000000000000000000000000000000000000000000000000000000000000000000000000000000000000000000000000000000000000000000000000000000000000                                                                                                                                                                                                    00000007                                                                                                                                                                                                                                                 
F00000001000000000000000000000                   00000004                                                                                                                                                                                                                                                                                                                                                                                                                                                          00000008                                                                                                                                                                                                                                                 
