T2015 12123456712345         TAX GETTERS                                                                     TAX GETTERS                                                                     1709 S STATE ST                         EDMOND                                  OK73013                   00000000JACK TAXUM                              4053400697     jack76@aol.com                                                                                                                               00000001          VADVANCED MICRO SOLUTIONS                1709 S. STATE STREET                    EDMOND                                  OK73013    KYLE MCCORKLE                           4053400697                                                 
A2015      487643215     W 127                      ADVANCED MICRO SOLUTIONS                AMS                                     01709 S STATE ST       STE 14            EDMOND                                  CA7301333331353472438                                                                                                                                                                                                                                                                         00000002                                                                                                                                                                                                                                                 
B2015     2111111111111111111/1                       000000000100000000000200000000000000000000000000000000000000000000000000000000000300000000000000000000000000000000000000000000000000000000000000000000000000000000000000000000000000000000000000 RALPH I PANDORA                         RIP                                                                             1503 W GAMERS LN                                                                RENO                                    NV648121411 00000003                                       82012021155555555555    SECON45   12   111-22-3333    222-33-4444                                                                                                               000000000500000000000700  
B2015     2222222222222222222/2                       000000001000000000002000000000000000000000000000000000000000000000000000000000003000000000000000000000000000000000000000000000000000000000000000000000000000000000000000000000000000000000000000 PATRICK A TREVOLTA                      PAT                                                                             4581 S YELLEROW CT                                                              ANYTOWN                                 OR687514165 00000004                                       52012032244444444444    FIVET35   5    111-23-4445    111-24-4446                                                                                                               000000005000000000004000  
B2015     2333333333333333333/3                       000000010000000000020000000000000000000000000000000000000000000000000000000000030000000000000000000000000000000000000000000000000000000000000000000000000000000000000000000000000000000000000000 SEYMOUR I CLAPPER                       SIC                                                                             6841 N FEVERLAND DR                                                             SOMETOWN                                NV644715487 00000005                                       62012042133333333333         21   7    111-24-4447    111-25-4448                                                                                                               000000050000000000070000  
B2015     2444444444444444444/4                       001000000000002000000000000000000000000000000000000000000000000000000000003000000000000000000000000000000000000000000000000000000000000000000000000000000000000000000000000000000000000000000000 ROBERT O BOLINGER                       ROB                                                                             6784 E SUCKERVIEW ST                                                            GREEN                                   OR649723333 00000006                                       92012062422222222222         23   4    112-25-6666    113-26-7788                                                   15479833000000000OR                                         005000000000007000000000  
C00000004      000000001000011100000000002000022200000000000000000000000000000000000000000000000000000000000000000000000000000000003000033300000000000000000000000000000000000000000000000000000000000000000000000000000000000000000000000000000000000000000000000000000000000000000000000000000000000000000000                                                                                                                                                                                                    00000007                                                                                                                                                                                                                                                 
F00000001000000000000000000000                   00000004                                                                                                                                                                                                                                                                                                                                                                                                                                                          00000008                                                                                                                                                                                                                                                 
