T2015 12123456712345         TAX GETTERS                                                                     TAX GETTERS                                                                     1709 S STATE ST                         EDMOND                                  OK73013                   00000000JACK TAXUM                              4053400697     jack76@aol.com                                                                                                                               00000001          VADVANCED MICRO SOLUTIONS                1709 S. STATE STREET                    EDMOND                                  OK73013    KYLE MCCORKLE                           4053400697                                                 
A2015      487643215     S 25                       ADVANCED MICRO SOLUTIONS                AMS                                     01709 S STATE ST       STE 14            EDMOND                                  CA7301333331353472438                                                                                                                                                                                                                                                                         00000002                                                                                                                                                                                                                                                 
B2015 ODSI2111223333132456156435132                   000000000000000000000100000000000000000000000000000000000200000000000000000000000000000000000000000000000000000000000000000000000000000000000000000000000000000000000000000000000000000000000000 ODSIHLKJLGFFD                           FDIOHJIOGJKLDFJLK                                                               IUHSDFOIDKA                                                                     SDFUIH                                  OK36782     00000003                                       120120219NNNNNNNNNNNNNNNNNNNNNNNNNN                                                                                                                                             000000000000000000000000  
B2015 GOFO2464481651464481651/2                       000000000000000000001000000000000000000000000000000000002000000000000000000000000000000000000000000000000000000000000000000000000000000000000000000000000000000000000000000000000000000000000000 ALEX GOFORTH                            AG                                                                              2344 S POPULAR AVE                                                              SOMEWHERE                               OK73155     00000004                                        20120312FFFFFFFFFFFFFFFFFFFFFFFFFF                                                                                                                                             000000000000000000000000  
B2015 DEGU26471816557351515145646516541               000000000000000000010000000000000000000000000000000000020000000000000000000000000000000000000000000000000000000000000000000000000000000000000000000000000000000000000000000000000000000000000000 CHARLES DEGUALE                         CD                                                                              2411 N LAWTON BLVD                                                              WHEREEVER                               OK73168     00000005                                       120120413DDDDDDDDDDDDDDDDDDDDDDDDDD                                                                                                                                             000000000000000000000000  
B2015 TOME2445851331445851331/4                       000000000000001000000000000000000000000000000000002000000000000000000000000000000000000000000000000000000000000000000000000000000000000000000000000000000000000000000000000000000000000000000000 ALFRED L TOMELIN                        ALT                                                                             7151 E PEARSON WAY                                                              SOMEWHERE                               NE58131     00000006                                        20120613GGGGGGGGGGGGGGGGGGGGGGGGGG                                                                                                                                             000000000000000000000000  
C00000004      000000000000000000000000001000011100000000000000000000000000000000000000000000002000022200000000000000000000000000000000000000000000000000000000000000000000000000000000000000000000000000000000000000000000000000000000000000000000000000000000000000000000000000000000000000000000000000000000                                                                                                                                                                                                    00000007                                                                                                                                                                                                                                                 
F00000001000000000000000000000                   00000004                                                                                                                                                                                                                                                                                                                                                                                                                                                          00000008                                                                                                                                                                                                                                                 
