T2015 12123456712345         TAX GETTERS                                                                     TAX GETTERS                                                                     1709 S STATE ST                         EDMOND                                  OK73013                   00000000JACK TAXUM                              4053400697     jack76@aol.com                                                                                                                               00000001          VADVANCED MICRO SOLUTIONS                1709 S. STATE STREET                    EDMOND                                  OK73013    KYLE MCCORKLE                           4053400697                                                 
A20151     251597535     1 1236789ABCDEFG           AAAA INC                                AAA                                     08790 NW 125TH ST                        ANYTOMN                                 OK7301333331353472438                                                                                                                                                                                                                                                                         00000002                                                                                                                                                                                                                                                 
B2015 BROW2436433462416845212                         000000000100000000000200000000001500000000000000000000000000000000000400000000000500000000000600000000000700000000000800000000000600000000000100000000000200000000000300000000000400000000000500 BROWN, RANDALL C                        RCB                                                                             15324 W ASPEN                                                                   ANYCITY                                 SC10641     00000003                                    2  CUBA                                                                                                                                                                            00000000060000000000000045
B2015 STRE2159788452159788452/2                       000000001000000000002000000000015000000000000000000000000000000000004000000000005000000000006000000000007000000000008000000000009000000000001000000000002000000000003000000000004000000000005000 STREETS, GEORGE P                       GPS                                                                             6432 S GRADY AVE                                                                ANYTOWN                                 MN10631     00000004                                       PERU                                                                                                                                                                            00000000600000000000000027
B2015 GEOR2445452354445452354/3                       000000010000000000020000000000150000000000000000000000000000000000040000000000050000000000060000000000070000000000080000000000090000000000010000000000020000000000030000000000040000000000050000 GEORGE E. PATTON SR.                    GEPS                                                                            3541 E MORGAN AVE                                                               BIGCITY                                 MO54351     00000005                                    2  BRAZIL                                                                                                                                                                          00000006000000000000000029
B2015 SEAN255544432544444444444444444444              001000000000002000000000015000000000000000000000000000000000004000000000005000000000006000000000007000000000008000000000009000000000001000000000002000000000003000000000004000000000005000000000 SEAN A PETERSON III                     SAP                                                                             6541 S WILLIAMSBERG RD                                                          LITTLETOWN                              MT65654     00000006                                       CANADA                                                                                                                                                                          00600000000000000000000030
C00000004      000000001000011100000000002000022200000000015000166500000000000000000000000000000000000000000000004000044400000000005000055500000000006000066600000000007000077700000000008000088800000000009000099600000000001000011100000000002000022200000000003000033300000000004000044400000000005000055500                                                                                                                                                                                                    00000007                                                                                                                                                                                                                                                 
K00000001      000000000000001000000000000000002000000000000000015000000000000000000000000000000000000000000000000000004000000000000000005000000000000000006000000000000000007000000000000000008000000000000000009000000000000000001000000000000000002000000000000000003000000000000000004000000000000000005000                                                                                                                                                                                                    00000008                                                                                                                                                                                                       000000000000006000000000000000000000    27
K00000001      000000000000010000000000000000020000000000000000150000000000000000000000000000000000000000000000000000040000000000000000050000000000000000060000000000000000070000000000000000080000000000000000090000000000000000010000000000000000020000000000000000030000000000000000040000000000000000050000                                                                                                                                                                                                    00000009                                                                                                                                                                                                       000000000000060000000000000000000000    29
K00000001      000000001000000000000000002000000000000000015000000000000000000000000000000000000000000000000000004000000000000000005000000000000000006000000000000000007000000000000000008000000000000000009000000000000000001000000000000000002000000000000000003000000000000000004000000000000000005000000000                                                                                                                                                                                                    00000010                                                                                                                                                                                                       000000006000000000000000000000000000    30
K00000001      000000000000000100000000000000000200000000000000001500000000000000000000000000000000000000000000000000000400000000000000000500000000000000000600000000000000000700000000000000000800000000000000000600000000000000000100000000000000000200000000000000000300000000000000000400000000000000000500                                                                                                                                                                                                    00000011                                                                                                                                                                                                       000000000000000600000000000000000000    45
A20151     251597535     A 12345678ABCDE            AAAA INC                                AAA                                     08790 NW 125TH ST                        ANYTOMN                                 OK7301333331353472438                                                                                                                                                                                                                                                                         00000012                                                                                                                                                                                                                                                 
B2015 ZECI1121221234121221234/1                       000000000100000000000200000000000300000000000400000000000500000000000600000000000700000000000800000000000000000000000900000000000200000000000300000000000600000000000700000000000000000000000000 RONALD TRUEDOE                          RT                                                                              5278 S PALMTREE CT                                                              SOMECITY                                OK743451111 00000013                                    2                                                                                                                      OK                                                          000000000400000000000000  
B2015 ROBE2159453211159453211/2                       000000001000000000002000000000003000000000004000000000005000000000006000000000007000000000008000000000000000000000009000000000002000000000003000000000006000000000007000000000000000000000000000 ROBERT C CONNORS                        RC                                                                              6541 W NOWHERE AVE                                                              SOMEWHERE                               CO965345244 00000014                                    2                                                                                                                      OK                                                          00000000400000000000000007
B2015 RECI2311221234311221234/3                       000000010000000000020000000000030000000000040000000000050000000000060000000000070000000000080000000000000000000000090000000000020000000000030000000000060000000000070000000000000000000000000000 SAMUAL CRAVETZ                          SC                                                                              4120 E RANDOLPH PL                                                              ANYTOWN                                 OK733453333 00000015                                    2  1                                                                                                                   OK                                                          000000040000000000000000  
B2015 RECI2211221234211221234/4                       001000000000002000000000003000000000004000000000005000000000006000000000007000000000008000000000000000000000009000000000002000000000003000000000006000000000007000000000000000000000000000000000 FRED G MERTZ JR                         FGM                                                                             RECIP LINE 30                                                                   RECIP LINE 40                           MI123452222 00000016                                    2  1                                                                                                                   OK                                                          00400000000000000000000026
C00000004      000000001000011100000000002000022200000000003000033300000000004000044400000000005000055500000000006000066600000000007000077700000000008000088800000000000000000000000000009000099900000000002000022200000000003000033300000000006000066600000000007000077700000000000000000000000000000000000000                                                                                                                                                                                                    00000017                                                                                                                                                                                                                                                 
K00000001      000000000000001000000000000000002000000000000000003000000000000000004000000000000000005000000000000000006000000000000000007000000000000000008000000000000000000000000000000000009000000000000000002000000000000000003000000000000000006000000000000000007000000000000000000000000000000000000000                                                                                                                                                                                                    00000018                                                                                                                                                                                                       000000000000004000000000000000000000    07
K00000001      000000001000000000000000002000000000000000003000000000000000004000000000000000005000000000000000006000000000000000007000000000000000008000000000000000000000000000000000009000000000000000002000000000000000003000000000000000006000000000000000007000000000000000000000000000000000000000000000                                                                                                                                                                                                    00000019                                                                                                                                                                                                       000000004000000000000000000000000000    26
A20151     487643215     6 12345689ABD              ABC MFG                                 ABC                                     04553 W ALLEGHANY DR                     SOMECITY                                OK7301333332457471542                                                                                                                                                                                                                                                                         00000020                                                                                                                                                                                                                                                 
B2015 RECI2342227248342227248/1                       000000000100000000000200000000000300000000000400000000000500000000000600000000000000000000000800000000000900000000000100000000000200000000000000000000001100000000000000000000000000000000000000 TARRANCE BLACKBURN                      TB                                                                              3288 N SANDUSKY LN                                                              CITY                                    OK723451111 00000021                                    2  7.00                                    555555555555                                                                753159852456                                                000000000100000000000000  
B2015 RECI2433221234433221234/2                       000000001000000000002000000000003000000000004000000000005000000000006000000000000000000000008000000000009000000000001000000000002000000000000000000000000000000000000000000000000000000000000000 BERNARD YELLOWSTONE                     BY                                                                              6148 S BRIGHTROCK LN                                                            SOMEPLACE                               OK723452222 00000022                                       70.00                                   444444444444                                                                753159852456                                                000000001000000000000000  
B2015 RECI2511221234511221234/3                       000000010000000000020000000000030000000000040000000000050000000000060000000000000000000000080000000000090000000000010000000000020000000000000000000000000000000000000000000000000000000000000000 MICHEAL DOLITTLE                        MD                                                                              3452 N LITTLEVIEW CT                                                            ANYWHERE                                OK723453333 00000023                                    2  700.00                                  333333333333                                                                753159852456                                                000000010000000000000000  
B2015 RECI2461227534461227534/4                       001000000000002000000000003000000000004000000000005000000000006000000000000000000000008000000000009000000000001000000000002000000000000000000000000000000000000000000000000000000000000000000000 ALLEN CAPSTONE                          AC                                                                              7412 W STONEWAY PL                                                              RIGHTHERE                               OK733454444 00000024                                    2  7000000000                              222222222222                                                                753159852456                                                001000000000000000000000  
C00000004      000000001000011100000000002000022200000000003000033300000000004000044400000000005000055500000000006000066600000000000000000000000000008000088800000000009000099900000000001000011100000000002000022200000000000000000000000000000000001100000000000000000000000000000000000000000000000000000000                                                                                                                                                                                                    00000025                                                                                                                                                                                                                                                 
A20151     487643215     A 12345678ABCDE            ABC MFG                                 ABC                                     04553 W ALLEGHANY DR                     SOMECITY                                OK7301333332457471542                                                                                                                                                                                                                                                                         00000026                                                                                                                                                                                                                                                 
B2015 ZECI1224852321224852321/1                       000000000100000000000200000000000300000000000400000000000500000000000600000000000700000000000800000000000000000000000900000000000200000000000300000000000600000000000700000000000000000000000000 THOMAS WALLENBURG                       TW                                                                              6148 E ROGERS AVE                                                               SOMEWHERE                               OK743451111 00000027                                    2                                                                                                                      OK                                                          000000000400000000000000  
B2015 ROBE2159453211159453211/2                       000000001000000000002000000000003000000000004000000000005000000000006000000000007000000000008000000000000000000000009000000000002000000000003000000000006000000000007000000000000000000000000000 ROBERT C BACNORS                        RB                                                                              2341 W SOMEWHERE AVE                                                            ANYWHERE                                OK745345244 00000028                                    2                                                                                                                      OK                                                          000000004000000000000000  
B2015 RECI2411239234411239234/3                       000000010000000000020000000000030000000000040000000000050000000000060000000000070000000000080000000000000000000000090000000000020000000000030000000000060000000000070000000000000000000000000000 CLARENCE APPLEBAUM                      CA                                                                              3001 W APPLE RD                                                                 SOMETOWN                                OK723453333 00000029                                    2  1                                                                                                                   OK                                                          000000040000000000000000  
B2015 RECI2414228434414228434/4                       001000000000002000000000003000000000004000000000005000000000006000000000007000000000008000000000000000000000009000000000002000000000003000000000006000000000007000000000000000000000000000000000 FRANK G BERTZ JR                        FGB                                                                             4419 S GRANITE AVE                                                              ANYTOWN                                 OK723452222 00000030                                    2  1                                                                                                                   OK                                                          004000000000000000000000  
C00000004      000000001000011100000000002000022200000000003000033300000000004000044400000000005000055500000000006000066600000000007000077700000000008000088800000000000000000000000000009000099900000000002000022200000000003000033300000000006000066600000000007000077700000000000000000000000000000000000000                                                                                                                                                                                                    00000031                                                                                                                                                                                                                                                 
F00000004000000000000000000000                   00000016                                                                                                                                                                                                                                                                                                                                                                                                                                                          00000032                                                                                                                                                                                                                                                 
